:020000040800F2
:100000000809002061020008553700080D3100087A
:100010005137000851070008B544000800000000EF
:10002000000000000000000000000000853900080A
:10003000550700080000000079380008413A000820
:100040007B0200087B0200087B0200087B0200089C
:100050007B0200087B0200087B0200087B0200088C
:100060007B0200087B0200087B0200087B0200087C
:100070007B0200087B0200087B0200087B0200086C
:100080007B0200087B0200087B02000800000000E1
:100090000000000000000000000000007B020008DB
:1000A0007B020008193B00087B0200087B02000865
:1000B0007B0200087B0200087B0200087B0200082C
:1000C0007B0200087B0200087B0200087B0200081C
:1000D0007B0200087B0200087B0200080000000091
:1000E0007B0200087B0200087B0200080000000081
:1000F0000000000000000000000000007B0200087B
:10010000000000007B020008293B00087B02000879
:1001100000000000000000000000000000000000DF
:100120007B0200087B0200087B0200087B020008BB
:100130007B0200080000000000000000000000003A
:100140000000000000000000000000007B0200082A
:100150007B0200087B0200087B0200087B0200088B
:100160007B0200087B020008000000000000000085
:10017000000000000000000000000000000000007F
:10018000000000007B0200080000000000000000EA
:100190007B02000800F002F800F052F814A696E87E
:1001A000000CB244B344DA4501D100F049F8BAE892
:1001B0000F000FA696E83000A5EB040504EB060738
:1001C000AAEB0704A7F101074FEA15154FEA34140B
:1001D000A4F10104AC4201D300F032F813F0010F96
:1001E00018BFFB1A43F0010300F001F8DBE71847E2
:1001F0006051000080510000103A24BF78C878C1D7
:10020000FAD8520724BF30C830C144BF04680C601C
:1002100070470000704700000023002400250026DE
:10022000103A28BF78C1FBD8520728BF30C148BF59
:100230000B6070471FB505F05CF81FBD10B510BD11
:1002400000F0E4F81146FFF7F5FF04F0A7FB00F01B
:1002500002F903B4FFF7F2FF03BC00F005F9000058
:100260000948804709480047FEE7FEE7FEE7FEE74A
:10027000FEE7FEE7FEE7FEE7FEE7FEE70448054986
:10028000054A064B70470000053B00089501000831
:1002900008030020080900200805002008050020A8
:1002A00053EA020C00F069802DE9F04B4FF0000694
:1002B000002B1FBFB3FA83F503FA05F424FA05F601
:1002C0005E4012BF1643B2FA82F502FA05F4C5F198
:1002D00020051EBF22FA05FC44EA0C04203556EA2C
:1002E000044C4FEA144418BF641C4FF000084FF050
:1002F0000009904271EB030C39D3002919BFB1FA00
:1003000081F701FA07F6B0FA80F700FA07F6C7F1AD
:1003100020071EBF20FA07FC46EA0C062037B6FB72
:10032000F4FCA7EB0507103F07F01F0BCBF12006ED
:100330002CFA06F60CFA0BFB44BFB3460026202F1E
:10034000A4BF5E464FF0000B5BEA060C08BF4FF0FF
:10035000010B19EB0B0948EB0608ABFB027C06FB13
:1003600002CC0BFB03CCC01B71EB0C01C1E70B46AD
:10037000024641464846BDE8F08B13B5084318BF16
:100380004FF0FF300146AFF30080BDE81C407047DE
:100390004FF0000200B5134694469646203922BF1E
:1003A000A0E80C50A0E80C50B1F12001BFF4F7AF69
:1003B000090728BFA0E80C5048BF0CC05DF804EB4B
:1003C000890028BF40F8042B08BF704748BF20F8B9
:1003D000022B11F0804F18BF00F8012B70477047B7
:1003E0007047704710B500F009F8006810BD10B5EF
:1003F000044600F003F8046010BD00000048704798
:100400002000002000487047200000207546FFF7BC
:10041000F9FFAE4605006946534620F007008546C1
:1004200018B020B5FFF72AFFBDE820404FF00006C6
:100430004FF000074FF000084FF0000BAC46ACE85F
:10044000C009ACE8C009ACE8C009ACE8C00921F0BB
:1004500007018D46704710B50446AFF30080204673
:10046000BDE81040FFF7F5BE01491820ABBEFEE71E
:10047000260002007047000082B0019042F2003076
:10048000C4F2010000900099486820F440304860B0
:1004900001984268009948681043486001980168D3
:1004A000486820F4807048600198016802694868D3
:1004B00040EA0220486001980168486820F04070D6
:1004C0004860019801688268486810434860019854
:1004D0000168886820F40060886001980168C2683B
:1004E0008868104388600198806A0121C0F6007115
:1004F000884219D0FFE701980168886820F0706091
:10050000886001980168826A886810438860019851
:100510000168886820F04050886001980168C26ACC
:100520008868104388600CE001980168886820F0B2
:100530007060886001980168886820F04050886089
:10054000FFE701980168886820F002008860019840
:10055000027E0168886840EA42008860019890F84D
:100560002000C8B1FFE701980168486840F40060C6
:10057000486001980168486820F46040486001982C
:100580000168426A4EF20000CFF6FF7000EB423283
:1005900048681043486006E001980168486820F404
:1005A00000604860FFE701980168C86A20F47000A5
:1005B000C86201980168C2690020CFF6F07000EBB4
:1005C0000252C86A1043C86201980168886820F422
:1005D00000708860019890F830200168886840EACF
:1005E0004220886001980168886820F480608860F3
:1005F000019801684269886840EA8220886002B0F8
:100600007047000080B582B040F60000C4F20200DE
:10061000009010210122019200F012FC019A0020AA
:10062000C4F20200802100F00BFC0098019A202106
:1006300000F006FC02B080BD80B584B0039040F6A7
:100640000000C4F2020010210022019200F0F8FB29
:1006500001988DF80B00FFE79DF80B00082817DCC8
:10066000FFE79DF80B1045F24430C0F60000405CF7
:1006700003F0A8F89DF80B2040F28701C2F20001B8
:100680008854FFE79DF80B0001308DF80B00E3E77D
:1006900040F60000C4F202001021012200F0D0FB5D
:1006A00040F28700C2F200004178039A1170C178CD
:1006B000C943039A51700179C943039A91704179F2
:1006C000039AD1708179039A1171C179039A51719A
:1006D000007A0399887104B080BD000080B586B0AF
:1006E00040F29410C2F2000000900021019102F04B
:1006F0009BFB00980421029102F096FB00980821D0
:10070000039102F091FB00980C21049102F08CFB04
:10071000019940F2DC10C2F20000059002F084FB67
:100720000299059802F080FB0399059802F07CFB82
:100730000499059802F078FB40F26C20C2F20000A8
:1007400001F0A6FFFFF75EFF03F01EF906B080BDC3
:10075000FFE7FEE77047000081B001200090FFE74F
:10076000FEE7000085B00390029100200190FFE7B2
:10077000039890F83C00012804D1FFE702208DF88F
:100780001300F7E00399012081F83C00FFE7FFE741
:10079000029800680A281CD3FFE70298008800EB43
:1007A0004000A0F11E01072000FA01F20398016841
:1007B000C8689043C86002998868098801EB4101C4
:1007C0001E3900FA01F203980168C8681043C86036
:1007D00018E00298008800EB4001072000FA01F2BF
:1007E000039801680869904308610299886809883C
:1007F00001EB410100FA01F2039801680869104316
:100800000861FFE70298406806281BD8FFE70298B6
:10081000406800EB8000411F1F2000FA01F203989E
:100820000168486B9043486302990888496801EB66
:100830008101053900FA01F203980168486B104301
:1008400048633DE0029840680C281CD8FFE70298F6
:10085000406800EB8000A0F123011F2000FA01F2A4
:1008600003980168086B90430863029908884968F7
:1008700001EB8101233900FA01F203980168086B4A
:10088000104308631BE00298406800EB8000A0F171
:1008900041011F2000FA01F203980168C86A9043E1
:1008A000C86202990888496801EB8101413900FA60
:1008B00001F203980168C86A1043C862FFE7FFE7C6
:1008C00042F20030C4F2010000900398006842F246
:1008D0000001C4F2010188420BD1FFE702980068D1
:1008E000122806D1FFE70099486840F4800048606C
:1008F000FFE70398006842F20001C4F20101884258
:100900002ED1FFE702980068102805D0FFE7029873
:100910000068112824D1FFE70099486840F40000DE
:10092000486002980068102819D1FFE740F20000E3
:10093000C2F2000000684DF68361C4F21B31A0FBD7
:100940000110800C00EB800040000190FFE701984F
:1009500020B1FFE7019801380190F8E7FFE7FFE7D2
:10096000FFE70399002081F83C00FFE700208DF8A5
:100970001300FFE79DF8130005B0704780B584B001
:10098000029000208DF80700029820B9FFE70120AF
:100990008DF80F0042E00298806A0121C0F60071D4
:1009A000884201D0FFE7FFE70298006C50B9FFE7EB
:1009B000029800F037F8029900204864029981F803
:1009C0003C00FFE70298006CC006002817D4FFE740
:1009D0000298006C40F0020020F4885002990864EC
:1009E0000298FFF749FD0299002048640298006CC4
:1009F00040F0010020F002000299086403E00120A9
:100A00008DF80700FFE7FFE70299002081F83C001E
:100A1000FFE79DF807008DF80F00FFE79DF80F0036
:100A200004B080BD80B588B0079000200690059086
:100A30000490039002900798006842F20001C4F20B
:100A4000010188422FD1FFE7FFE70020019043F624
:100A50004400C4F20200016841F480710160006842
:100A600000F4807001900198FFE7FFE700200090FC
:100A700043F63000C4F20200016841F00101016058
:100A8000006800F0010000900098FFE7302002901D
:100A900003200390002004900020C4F2020002A969
:100AA00000F004F8FFE708B080BD00008BB00A90AA
:100AB000099100200790069005900890FFE708989C
:100AC0000F2800F2A281FFE70899012088400790D3
:100AD0000998006807990840069006980799884287
:100AE00040F08E81FFE70998406800F0030001287C
:100AF00007D0FFE70998406800F0030002282FD1D3
:100B0000FFE70A988068059008984100032000FAE2
:100B100001F10598884305900998C0680899490033
:100B200000FA01F105980843059005980A99886034
:100B30000A98406805900899012000FA01F105988B
:100B40008843059009984068C0F30010089900FA9E
:100B500001F105980843059005980A994860FFE758
:100B60000998406800F00300032818D0FFE70A98AE
:100B7000C068059008984100032000FA01F105982B
:100B800088430590099880680899490000FA01F1A6
:100B900005980843059005980A99C860FFE70998E9
:100BA000406800F00300022826D1FFE70A98089960
:100BB0006FF0030202EA51010844006A05900898A8
:100BC00000F0070081000F2000FA01F1059888432A
:100BD000059009980069089901F00701890000FA59
:100BE00001F105980843059005980A99089B02EAC7
:100BF000530211440862FFE70A98006805900898BC
:100C00004100032000FA01F10598884305900998F6
:100C1000406800F003000899490000FA01F10598C6
:100C20000843059005980A9908600998807980071B
:100C3000002800F0E480FFE7FFE70020049043F67F
:100C40004400C4F20200016841F480410160006880
:100C500000F4804004900498FFE7089820F0030017
:100C600043F60801C4F2010140580590089800F0CD
:100C7000030081000F2000FA01F1059888430590D8
:100C80000A980021C4F20201884203D1FFE7002044
:100C9000039034E00A9840F20041C4F20201884215
:100CA00003D1FFE70120029026E00A9840F60001F8
:100CB000C4F20201884203D1FFE70220019018E04C
:100CC0000A9840F60041C4F20201884203D1FFE7CE
:100CD000032000900AE00A9941F20002C4F20202E5
:100CE0000720914208BF04200090FFE70098019080
:100CF000FFE701980290FFE702980390FFE703984F
:100D0000C0B2089901F00301890000FA01F10598C9
:100D1000084305900598089921F0030143F608025D
:100D2000C4F20102885043F60840C4F20100006892
:100D30000590069905988843059009988079C00622
:100D4000002805D5FFE70699059808430590FFE7B9
:100D5000059843F60841C4F20101086043F60C40CF
:100D6000C4F2010000680590069905988843059033
:100D7000099880798006002805D5FFE7069905982F
:100D800008430590FFE7059843F60C41C4F20101C2
:100D9000086043F60440C4F201000068059006991B
:100DA000059888430590099880798007002805D523
:100DB000FFE70699059808430590FFE7059843F675
:100DC0000441C4F20101086043F60040C4F201008E
:100DD00000680590069905988843059009988079E0
:100DE000C00728B1FFE70699059808430590FFE77B
:100DF000059843F60041C4F201010860FFE7FFE7F0
:100E0000FFE708980130089059E60BB070470000E2
:100E100082B00190ADF8021001980069BDF802108F
:100E2000084204D0FFE701208DF8010003E0002014
:100E30008DF80100FFE79DF8010002B07047000047
:100E400082B00190ADF802108DF801209DF80100EC
:100E500028B1FFE7BDF802000199886105E0BDF8FF
:100E60000200000401998861FFE702B070470000AA
:100E700040F20430C2F200000068704780B58EB0C6
:100E80000C900C9820B9FFE701208DF8370043E162
:100E90000C9890F83D0040B9FFE70C99002081F8CC
:100EA0003C000C9800F03CF9FFE70C99242081F8F5
:100EB0003D000C980168086820F0010008600C985B
:100EC0000168086840F4004008600C9801680868F0
:100ED00020F40040086000F081FC0A900C98406803
:100EE00048F2A061C0F2010188420BD8FFE70A99DD
:100EF00048F28042C0F21E020020914238BF012019
:100F000009900AE00A9940F60012C0F23D02002062
:100F1000914238BF01200990FFE70998012804D1C8
:100F2000FFE701208DF83700F6E00A984DF683615F
:100F3000C4F21B31A0FB0110800C0B900C980068D0
:100F4000406820F03F000B9908430C9909684860FD
:100F50000C980068006A20F03F0008900C984068E8
:100F600048F2A061C0F20101884204D8FFE70B9863
:100F7000013007900EE00B984FF49671484344F609
:100F8000D351C1F26201A0FB0101012000EB9110DD
:100F90000790FFE70898079908430C9909680862C9
:100FA0000C980068C0694CF6FF71884306900C9855
:100FB000406848F2A061C0F2010188421FD8FFE7F3
:100FC0000A9801380C9949684900B0FBF1F00130EA
:100FD0006FF31F30032803D8FFE7042005900BE0D0
:100FE0000A9801380C9949684900B0FBF1F00130CA
:100FF0006FF31F300590FFE7059804904CE00C98C4
:10100000806868B9FFE70A9801380C99496801EBD4
:101010004101B0FBF1F001306FF31F3003900DE0A0
:101020000A9801380C99496819225143B0FBF1F034
:101030000130042161F31F300390FFE7039800059E
:1010400018B9FFE70120029023E00C98806868B986
:10105000FFE70A9801380C99496801EB4101B0FBA0
:10106000F1F001306FF31F3001900DE00A98013864
:101070000C99496819225143B0FBF1F00130042169
:1010800061F31F300190FFE7019840F400400290A7
:10109000FFE702980490FFE70698049908430C992B
:1010A0000968C8610C980068006820F0C0000C9BBB
:1010B0001968DA691B6A1A43104308600C980068C3
:1010C000806848F2FF3188430C9A1168D36812692E
:1010D0001A43104388600C980068C06820F0FF0035
:1010E0000C9B19685A699B691A431043C8600C9895
:1010F0000168086840F0010008600C99002008644D
:101100000C9A202182F83D100C9908630C9981F803
:101110003E008DF83700FFE79DF837000EB080BD28
:1011200080B588B007900020069005900490039049
:1011300002900798006845F20041C4F2000188421D
:1011400034D1FFE7FFE70020019043F63000C4F2FE
:101150000200016841F002010160006800F0020035
:1011600001900198FFE7C020029012200390002018
:101170000490032005900420069040F20040C4F241
:10118000020002A9FFF792FCFFE70020009043F65F
:101190004000C4F20200016841F4001101600068DF
:1011A00000F4001000900098FFE7FFE708B080BD52
:1011B00040F21800C2F20000027840F20431C2F29C
:1011C00000010868104408607047000080B543F6CD
:1011D0000041C4F20201086840F400700860086829
:1011E00040F480600860086840F480700860032064
:1011F00000F08AF80F2000F005F800F03BF800201E
:1012000080BD000080B582B0009040F20000C2F2C4
:101210000000006840F21801C2F200010A784FF4A1
:101220007A71B1FBF2F1B0FBF1F001F0E9F820B115
:10123000FFE701208DF8070018E000980F280DD86F
:10124000FFE700994FF0FF30002200F043F80098CC
:1012500040F21C01C2F20001086003E001208DF899
:10126000070003E000208DF80700FFE79DF8070066
:1012700002B080BD82B0FFE70020019043F6440039
:10128000C4F20200016841F480410160006800F48A
:10129000804001900198FFE7FFE70020009043F6AF
:1012A0004000C4F20200016841F080510160006812
:1012B00000F0805000900098FFE702B070470000F7
:1012C00080B582B08DF807009DF9070003F0F4F8AF
:1012D00002B080BD80B586B08DF8170004910392EE
:1012E0000020029003F000F902909DF91700019090
:1012F00002980499039A02F02FFA0146019803F02C
:10130000FBF806B080BD000080B582B00190019866
:1013100003F014F902B080BD80B586B004900020BF
:10132000039002900498006800F00100012806D0A4
:10133000FFE704980078400700284ED5FFE76821B2
:10134000C4F2472100200860FFF792FD0390FFE7F9
:1013500043F60000C4F20200006800F000610020C3
:10136000B0EBD16F0CD0FFE7FFF782FD0399401A75
:10137000032804D3FFE703208DF81700F2E0E7E726
:10138000049948688968800140EA017043F6840145
:10139000C4F2020108606821C4F2472101200860FC
:1013A000FFF766FD0390FFE743F60000C4F202007A
:1013B000006800F000610020B0EBD16F0CD1FFE7B6
:1013C000FFF756FD0399401A032804D3FFE70320D3
:1013D0008DF81700C6E0E7E7FFE70498007880077C
:1013E000002840F1AD80FFE7FFE70020019043F6C1
:1013F0004000C4F20200016841F0805101600068C1
:1014000000F0805001900198FFE747F20001C4F21C
:101410000001086840F480700860FFF729FD039020
:10142000FFE747F20000C4F200000068C005002892
:101430000CD4FFE7FFF71CFD0399401A032804D3DF
:10144000FFE703208DF817008CE0EAE743F6700011
:10145000C4F20200006800F4407002900298002874
:101460003ED0FFE702980499C96801F440718842B0
:1014700036D0FFE743F67000C4F20200016821F4A1
:101480004071029140F64062C4F24722012111608E
:1014900000211160029901600068C007F8B1FFE700
:1014A000FFF7E6FC0390FFE743F67000C4F202008A
:1014B000006800F002010020B0EB510F0ED1FFE7F1
:1014C000FFF7D6FC0399401A41F28931884204D3D0
:1014D000FFE703208DF8170044E0E5E7FFE7FFE7AB
:1014E000FFE70498C06800F44070B0F5407F11D168
:1014F000FFE743F60801C4F20201086820F4F8107F
:10150000049AD2684FF6FF43C0F6FF731A401043A7
:10151000086008E043F60801C4F20201086820F4FC
:10152000F8100860FFE70498C2686FF31F3243F6B3
:101530007001C4F20201086810430860FFE7FFE78A
:10154000049800780007002808D5FFE70498007C7D
:1015500041F2E011C4F247210860FFE700208DF856
:101560001700FFE79DF8170006B080BD80B584B076
:1015700002900191029820B9FFE701208DF80F0039
:1015800021E1019843F60041C4F20201096801F02B
:101590000701884212D9FFE7019943F60040C4F2DF
:1015A00002000170006800F007000199884204D031
:1015B000FFE701208DF80F0005E1FFE702980078B2
:1015C000800700282AD5FFE7029800784007002806
:1015D00009D5FFE743F60801C4F20201086840F4A8
:1015E000E0500860FFE7029800780007002809D55E
:1015F000FFE743F60801C4F20201086840F46040C6
:101600000860FFE743F60801C4F20201086820F011
:10161000F000029A926810430860FFE70298007891
:10162000C00700286ED0FFE702984068012811D15A
:10163000FFE743F60000C4F20200006800F4003146
:101640000020B0EB514F04D1FFE701208DF80F00CF
:10165000B9E02CE002984068022805D0FFE7029824
:101660004068032811D1FFE743F60000C4F20200EE
:10167000006800F000710020B0EB516F04D1FFE76B
:1016800001208DF80F009EE010E043F60000C4F248
:101690000200006800F002010020B0EB510F04D1FD
:1016A000FFE701208DF80F008DE0FFE7FFE743F62D
:1016B0000801C4F20201086820F00300029A52688F
:1016C00010430860FFF7D4FB0090FFE743F60800E3
:1016D000C4F20200006800F00C0002994968B0EB07
:1016E000810F0ED0FFE7FFF7C3FB0099401A41F2CC
:1016F0008931884204D3FFE703208DF80F0062E0B0
:10170000E4E7FFE7019843F60041C4F202010968EB
:1017100001F00701884212D2FFE7019943F6004029
:10172000C4F202000170006800F0070001998842CD
:1017300004D0FFE701208DF80F0044E0FFE7029896
:101740000078400700280CD5FFE743F60801C4F2F3
:101750000201086820F4E050029AD2681043086041
:10176000FFE702980078000700280DD5FFE743F651
:101770000801C4F20201086820F46040029A12696C
:1017800040EAC2000860FFE700F04CF843F60801A9
:10179000C4F202010968C9B20A0945F22C31C0F647
:1017A0000001895CC84040F20001C2F200010860FB
:1017B00040F21C00C2F200000068FFF723FD002089
:1017C0008DF80F00FFE79DF80F0004B080BD00000A
:1017D00040F20000C2F200000068704780B5FFF7D9
:1017E000F7FF43F60801C4F202010968C1F382223F
:1017F00045F23C31C0F60001895CC84080BD000064
:1018000080B5FFF7E5FF43F60801C4F2020109685D
:1018100089B24A0B45F23C31C0F60001895CC840F0
:1018200080BD000080B586B0002005900490039034
:10183000029043F60800C4F20200006800F00C00B9
:101840000146019140B1FFE7019804280AD0FFE763
:10185000019808280CD04FE042F20040C0F2F4009A
:1018600002904FE041F20020C0F27A00029049E07D
:1018700043F60400C4F20200016801F03F01059143
:1018800000684002002813D5FFE743F60400C4F2C5
:1018900002000068C0F3881041F20021C0F27A0112
:1018A000A0FB0101059A0023FEF7FAFC049012E068
:1018B00043F60400C4F202000068C0F3881042F24C
:1018C0000041C0F2F401A0FB0101059A0023FEF7DC
:1018D000E7FC0490FFE743F60400C4F2020000684E
:1018E00000F44031022000EBD130039004980399BA
:1018F000B0FBF1F0029005E042F20040C0F2F400CB
:101900000290FFE7029806B080BD000080B586B067
:101910000490049820B9FFE701208DF8170050E3E8
:1019200004980078C007002800F0A580FFE743F680
:101930000800C4F20200006800F00C00042813D074
:10194000FFE743F60800C4F20200006800F00C0054
:1019500008281ED1FFE743F60400C4F20200006825
:101960004002002815D5FFE743F60000C4F202004C
:10197000006800F400310020B0EB514F08D0FFE7C1
:101980000498406820B9FFE701208DF8170018E39C
:1019900070E0FFE704984068B0F5803F09D1FFE7A9
:1019A00043F60001C4F20201086840F48030086088
:1019B00020E004984068B0F5A02F0DD1FFE743F672
:1019C0000001C4F20201086840F480200860086841
:1019D00040F4803008600CE043F60001C4F20201DC
:1019E000086820F480300860086820F480200860CF
:1019F000FFE7FFE7FFE704984068E8B1FFE7FFF77C
:101A000037FA0390FFE743F60000C4F202000068D3
:101A100000F400310020B0EB514F0CD1FFE7FFF78D
:101A200027FA0399401A652804D3FFE703208DF8AD
:101A30001700C6E2E7E71CE0FFF71AFA0390FFE79A
:101A400043F60000C4F20200006800F400310020F8
:101A5000B0EB514F0CD0FFE7FFF70AFA0399401A99
:101A6000652804D3FFE703208DF81700A9E2E7E714
:101A7000FFE7FFE7FFE7049800788007002840F1C0
:101A80009680FFE743F60800C4F20200006810F0F9
:101A90000C0F13D0FFE743F60800C4F20200006801
:101AA00000F00C0008282CD1FFE743F60400C4F234
:101AB000020000684002002823D4FFE743F600003C
:101AC000C4F20200006800F002010020B0EB510FE8
:101AD00009D0FFE70498C068012804D0FFE701207F
:101AE0008DF817006DE243F60001C4F202010868A8
:101AF00020F0F800049A126940EAC2000860FFE78B
:101B000054E00498C06870B3FFE70021C4F2472195
:101B100001200860FFF7ACF90390FFE743F60000EF
:101B2000C4F20200006800F002010020B0EB510F87
:101B30000CD1FFE7FFF79CF90399401A032804D35F
:101B4000FFE703208DF817003BE2E7E743F60001CB
:101B5000C4F20201086820F0F800049A126940EA11
:101B6000C200086021E00021C4F247210020086083
:101B7000FFF77EF90390FFE743F60000C4F202008E
:101B8000006800F002010020B0EB510F0CD0FFE71D
:101B9000FFF76EF90399401A032804D3FFE70320E7
:101BA0008DF817000DE2E7E7FFE7FFE7FFE704988E
:101BB0000078000700284BD5FFE70498406918B368
:101BC000FFE740F68061C4F2472101200860FFF77B
:101BD0004FF90390FFE743F67400C4F20200006877
:101BE00000F002010020B0EB510F0CD1FFE7FFF72E
:101BF0003FF90399401A032804D3FFE703208DF827
:101C00001700DEE1E7E722E040F68061C4F24721F9
:101C100000200860FFF72CF90390FFE743F67400FB
:101C2000C4F20200006800F002010020B0EB510F86
:101C30000CD0FFE7FFF71CF90399401A032804D3DF
:101C4000FFE703208DF81700BBE1E7E7FFE7FFE7B9
:101C5000049800784007002840F1CE80FFE700207C
:101C60008DF8070043F64000C4F202000068C0008F
:101C7000002815D4FFE7FFE70020009043F640005E
:101C8000C4F20200016841F080510160006800F078
:101C9000805000900098FFE701208DF80700FFE7D3
:101CA00047F20000C4F200000068C005002822D4FA
:101CB000FFE747F20001C4F20001086840F48070B9
:101CC0000860FFF7D5F80390FFE747F20000C4F281
:101CD00000000068C00500280CD4FFE7FFF7C8F833
:101CE0000399401A032804D3FFE703208DF8170057
:101CF00067E1EAE7FFE7FFE704988068012809D178
:101D0000FFE743F67001C4F20201086840F00100E9
:101D100008601FE00498806805280DD1FFE743F6AE
:101D20007001C4F20201086840F00400086008680D
:101D300040F0010008600CE043F67001C4F20201BB
:101D4000086820F001000860086820F004000860BE
:101D5000FFE7FFE7FFE704988068F8B1FFE7FFF7C8
:101D600087F80390FFE743F67000C4F202000068B2
:101D700000F002010020B0EB510F0ED1FFE7FFF79A
:101D800077F80399401A41F28931884204D3FFE77A
:101D900003208DF8170014E1E5E71EE0FFF768F86F
:101DA0000390FFE743F67000C4F20200006800F001
:101DB00002010020B0EB510F0ED0FFE7FFF758F8FB
:101DC0000399401A41F28931884204D3FFE7032086
:101DD0008DF81700F5E0E5E7FFE79DF8070001281B
:101DE00009D1FFE743F64001C4F20201086820F080
:101DF00080500860FFE7FFE704988069002800F042
:101E0000DC80FFE743F60800C4F20200006800F03F
:101E10000C00082800F08580FFE7049880690228FC
:101E20005CD1FFE76021C4F2472100200860FFF782
:101E30001FF80390FFE743F60000C4F202000068B9
:101E400000F000710020B0EB516F0CD0FFE7FFF7FE
:101E50000FF80399401A032804D3FFE703208DF8F5
:101E60001700AEE0E7E70499C869D1F820C04B6AD3
:101E70008A6A40EA0C0040EA8310D2034FF6FF73EF
:101E80009A43A2F580321043C96A40EA016043F6E2
:101E90000401C4F2020108606021C4F2472101205C
:101EA0000860FEF7E5FF0390FFE743F60000C4F289
:101EB0000200006800F000710020B0EB516F0CD1FF
:101EC000FFE7FEF7D5FF0399401A032804D3FFE785
:101ED00003208DF8170074E0E7E721E06021C4F2E9
:101EE000472100200860FEF7C3FF0390FFE743F699
:101EF0000000C4F20200006800F000710020B0EBA6
:101F0000516F0CD0FFE7FEF7B3FF0399401A032887
:101F100004D3FFE703208DF8170052E0E7E7FFE75F
:101F20004AE004988069012804D1FFE701208DF878
:101F3000170046E043F60400C4F202000068029075
:101F400004988069012831D0FFE7029800F48000EE
:101F50000499C969884229D1FFE7029800F03F003F
:101F60000499096A884221D1FFE7029847F6C071B7
:101F700008400499496AB0EB811F17D1FFE7029826
:101F800000F440300499896AC9034FF6FF72914307
:101F9000A1F58031884209D1FFE7029800F0706016
:101FA0000499C96AB0EB016F04D0FFE701208DF8F6
:101FB000170006E0FFE7FFE7FFE700208DF81700B6
:101FC000FFE79DF8170006B080BD000080B584B023
:101FD0000290029820B9FFE701208DF80F0077E00A
:101FE0000298407F38B9FFE70299002008770298ED
:101FF00000F072F8FFE70299022048770298006823
:10200000C06800F010010020B0EB111F4FD1FFE7B6
:10201000FFE702980168CA204862029801685320CD
:102020004862FFE7029801F047FC8DF807009DF831
:10203000070020BBFFE70298016888684FF6BF726F
:10204000CFF68F7210408860029A11685068136949
:1020500052691843024388681043886002980168F7
:10206000C0680861029801688268086940EA024015
:102070000861029801F062FC8DF80700FFE79DF807
:10208000070068B9FFE702980168086C20F4802017
:102090000864029801688269086C10430864FFE7CD
:1020A000FFE702980168FF204862FFE703E0002095
:1020B0008DF80700FFE79DF8070020B9FFE70299B8
:1020C00001204877FFE79DF807008DF80F00FFE734
:1020D0009DF80F0004B080BD80B586B0059000204B
:1020E000049003900290019000900598006842F6D9
:1020F0000001C4F20001884214D1FFE702200090E1
:102100004FF4007003906846FFF706F918B1FFE737
:10211000FEF722FBFFE740F63C61C4F247210120B5
:102120000860FFE706B080BD80B588B006900591D5
:10213000049200200390FFE70698007F012804D155
:10214000FFE702208DF81F007DE006990120087747
:10215000FFE7FFE7069902204877049868B9FFE790
:1021600005984078C006002807D5FFE7059948780C
:1021700000F0EF000A304870FFE70498E0B9FFE78D
:102180000598C07801F07AFB00040090059840782B
:1021900001F074FB0146009840EA01200190059887
:1021A000807801F06BFB0146019808440599097895
:1021B00040EA413003900CE005980178437882783A
:1021C000C078000440EA0320104440EA4130039004
:1021D000FFE7FFE706980168CA2048620698016891
:1021E00053204862FFE7069801F066FB8DF80B006C
:1021F0009DF80B0078B9FFE703984FF63F71C0F2E6
:10220000FF010840069909684860069801F096FBAE
:102210008DF80B00FFE79DF80B0020B9FFE706994A
:1022200001204877FFE7FFE706980168FF20486232
:10223000FFE7FFE7069900200877FFE79DF80B000E
:102240008DF81F00FFE79DF81F0008B080BD00005B
:1022500080B588B006900591049200200390FFE7B6
:102260000698007F012804D1FFE702208DF81F00A7
:1022700095E0069901200877FFE7FFE7069902201D
:102280004877049840BBFFE70698006880684006DE
:10229000002801D5FFE703E005990020C870FFE79B
:1022A0000598007801F0EAFA00040090059840785B
:1022B00001F0E4FA0146009840EA012001900598F7
:1022C000807801F0DBFA0146019808440599C97845
:1022D00040EA8150039018E0069800688068400644
:1022E000002801D5FFE703E005990020C870FFE74B
:1022F000059908784B788A78C978000440EA032069
:10230000104440EA81500390FFE7FFE70698016818
:10231000CA2048620698016853204862FFE7069881
:1023200001F0CAFA8DF80B009DF80B00F8B9FFE731
:10233000039847F67F71C0F27F010840069909684B
:10234000086006980168886820F4802088600599F4
:10235000C868096940EA0102069801688868104364
:102360008860069801F0EAFA8DF80B00FFE79DF807
:102370000B0020B9FFE7069901204877FFE7FFE748
:1023800006980168FF204862FFE7FFE706990020F2
:102390000877FFE79DF80B008DF81F00FFE79DF819
:1023A0001F0008B080BD000080B584B002900020FE
:1023B00001900298016843F65F70C0F20100C860A6
:1023C000FEF756FD0190FFE702980068C06880069E
:1023D00000280DD4FFE7FEF74BFD0199401AB0F538
:1023E0007A7F04D9FFE703208DF80F0004E0EBE7C4
:1023F00000208DF80F00FFE79DF80F0004B080BDAE
:1024000080B582B00190019801F0F0FA02B080BD71
:1024100081B0009001B0704781B0009001B070476A
:1024200085B003900291FFE7039890F83C000128E3
:1024300004D1FFE702208DF813006CE0039901201E
:1024400081F83C00FFE7FFE70399022081F83D0097
:1024500003980068406801900398006880680090C5
:10246000019820F0700001900298016801980843DB
:102470000190019803990968486003980068002159
:10248000C4F2010188422AD0FFE703980068B0F146
:10249000804F24D0FFE70398006840F20041C4F267
:1024A000000188421BD0FFE70398006840F6000156
:1024B000C4F20001884212D0FFE70398006840F69A
:1024C0000041C4F20001884209D0FFE70398006888
:1024D00044F20001C4F2010188420ED1FFE70098E6
:1024E00020F0800000900298416800980843009016
:1024F0000098039909688860FFE70399012081F833
:102500003D00FFE70399002081F83C00FFE7002031
:102510008DF81300FFE79DF8130005B07047000029
:1025200080B582B00090009820B9FFE701208DF8B7
:1025300007003FE0009890F83D0040B9FFE70099A0
:10254000002081F83C00009800F038F8FFE700997F
:10255000022081F83D00009951F8040B01F0ECFADB
:102560000099012081F84600FFE70099012081F8D9
:102570003E00009981F83F00009981F840000099E1
:1025800081F84100FFE7FFE70099012081F8420050
:10259000009981F84300009981F84400009981F87E
:1025A0004500FFE70099012081F83D0000208DF8EB
:1025B0000700FFE79DF8070002B080BD80B586B038
:1025C0000590059800680021C4F2010188421BD1E2
:1025D000FFE7FFE70020049043F64400C4F2020046
:1025E000016841F001010160006800F00100049001
:1025F0000498FFE71920019000221146FEF76AFEB9
:102600000198FEF75DFE40E00598006840F6000185
:10261000C4F20001884212D1FFE7FFE700200390D7
:1026200043F64000C4F20200016841F00401016079
:10263000006800F0040003900398FFE724E0059889
:10264000006840F60041C4F2000188421BD1FFE758
:10265000FFE70020029043F64000C4F20200016848
:1026600041F008010160006800F008000290029843
:10267000FFE73220009000221146FEF72BFE009863
:10268000FEF71EFEFFE7FFE7FFE706B080BD000094
:1026900083B00190019890F83D00012804D0FFE735
:1026A00001208DF80B0058E00199022081F83D00CF
:1026B00001980168C86840F00100C860019800688E
:1026C0000021C4F2010188422AD0FFE70198006886
:1026D000B0F1804F24D0FFE70198006840F200413C
:1026E000C4F2000188421BD0FFE70198006840F661
:1026F0000001C4F20001884212D0FFE7019800688F
:1027000040F60041C4F20001884209D0FFE7019879
:10271000006844F20001C4F20101884212D1FFE7CF
:1027200001980068806800F0070000900098062873
:1027300007D0FFE701980168086840F001000860D1
:10274000FFE706E001980168086840F001000860B2
:10275000FFE700208DF80B00FFE79DF80B0003B0AA
:102760007047000080B586B00490039100208DF87A
:102770000B00FFE7049890F83C00012804D1FFE724
:1027800002208DF81700ABE00499012081F83C008D
:10279000FFE7FFE70499022081F83D0004980068F4
:1027A00080680190019820F077000190019820F452
:1027B0007F40019001980499096888600398006837
:1027C0000090002872D0FFE7009810286ED0FFE735
:1027D000009820286AD0FFE70098302866D0FFE7ED
:1027E0000098402855D0FFE70098502837D0FFE7E1
:1027F0000098602840D0FFE7009870280BD0FFE7D2
:102800000098B0F5805F05D0FFE70098B0F5005F55
:1028100016D052E055E004980068039B5A68996806
:10282000DB6801F047FA049800688068019001981D
:1028300040F077000190019804990968886040E0B1
:1028400004980068039B5A689968DB6801F032FAC3
:1028500004980168886840F48040886031E00498FA
:102860000068039A5168D26801F0D8FB04980068A8
:10287000502101F039FA24E004980068039A516865
:10288000D26801F0F3FB04980068602101F02CFA93
:1028900017E004980068039A5168D26801F0BEFB03
:1028A00004980068402101F01FFA0AE004980068CB
:1028B0000399096801F018FA03E001208DF80B0074
:1028C000FFE70499012081F83D00FFE7049900200B
:1028D00081F83C00FFE79DF80B008DF81700FFE73B
:1028E0009DF8170006B080BD81B0009001B0704720
:1028F00080B584B0039003980068C0680290039884
:102900000068006901909DF804008007002824D524
:10291000FFE79DF80800800700281DD5FFE7039812
:1029200001686FF00200086103990120087703989D
:1029300000688069800720B1FFE70398FFF7D4FFA4
:1029400006E0039800F040F9039800F069FAFFE709
:10295000039900200877FFE7FFE79DF80400400790
:10296000002825D5FFE79DF80800400700281ED560
:10297000FFE7039801686FF00400086103990220E3
:10298000087703980068806910F4407F04D0FFE75F
:102990000398FFF7A9FF06E0039800F015F90398E4
:1029A00000F03EFAFFE7039900200877FFE7FFE712
:1029B0009DF804000007002824D5FFE79DF80800D3
:1029C000000700281DD5FFE7039801686FF0080095
:1029D000086103990420087703980068C06980079C
:1029E00020B1FFE70398FFF77FFF06E0039800F0B0
:1029F000EBF8039800F014FAFFE70399002008773A
:102A0000FFE7FFE79DF80400C006002825D5FFE793
:102A10009DF80800C00600281ED5FFE7039801684E
:102A20006FF0100008610399082008770398006888
:102A3000C06910F4407F04D0FFE70398FFF754FF0C
:102A400006E0039800F0C0F8039800F0E9F9FFE70A
:102A5000039900200877FFE7FFE79DF80400C0070F
:102A600078B1FFE79DF80800C00748B1FFE7039879
:102A700001686FF001000861039800F095FAFFE724
:102A8000FFE79DF804000006002810D5FFE79DF839
:102A900008000006002809D5FFE7039801686FF0D9
:102AA000800008610398FFF7B3FCFFE7FFE79DF89C
:102AB00004004006002810D5FFE79DF808004006F6
:102AC000002809D5FFE7039801686FF0400008610E
:102AD000039800F07FFAFFE7FFE79DF80400800607
:102AE000002810D5FFE79DF808008006002809D5CA
:102AF000FFE7039801686FF0200008610398FFF773
:102B00008BFCFFE7FFE704B080BD000080B588B014
:102B1000079000200690059004900390029007987B
:102B20000068B0F1804F21D1FFE7FFE7002001905E
:102B300043F63000C4F20200016841F00101016077
:102B4000006800F0010001900198FFE70F2002905B
:102B500002200390002004900590012006900020A0
:102B6000C4F2020002A9FDF7A1FF2BE0079800685C
:102B700040F20041C4F20001884222D1FFE7FFE7A2
:102B80000020009043F63000C4F20200016841F0DA
:102B900004010160006800F0040000900098FFE765
:102BA0004FF470700290022003900021049105916F
:102BB000069040F60000C4F2020002A9FDF776FF7D
:102BC000FFE7FFE708B080BD81B0009001B070471B
:102BD00080B586B004900391029200208DF8070022
:102BE000FFE7049890F83C00012804D1FFE7022099
:102BF0008DF8170089E00499012081F83C00FFE777
:102C0000FFE7029800900C2800F270800099DFE83E
:102C100001F0076D6D6D206D6D6D3A6D6D6D53003A
:102C200004980068039901F075F8049801688869B0
:102C300040F00800886104980168886920F0040069
:102C40008861039802690498016888691043886163
:102C500050E004980068039901F0C2F804980168F4
:102C6000886940F40060886104980168886920F4EC
:102C7000806088610398026904980168886940EA65
:102C80000220886136E004980068039901F012F987
:102C900004980168C86940F00800C8610498016898
:102CA000C86920F00400C8610398026904980168AB
:102CB000C8691043C8611DE004980068039901F0D9
:102CC00063F904980168C86940F40060C861049819
:102CD0000168C86920F48060C8610398026904989B
:102CE0000168C86940EA0220C86103E001208DF84C
:102CF0000700FFE7FFE70499002081F83C00FFE7A9
:102D00009DF807008DF81700FFE79DF8170006B043
:102D100080BD000080B582B00090009820B9FFE728
:102D200001208DF807003FE0009890F83D0040B981
:102D3000FFE70099002081F83C00009800F038F887
:102D4000FFE70099022081F83D00009951F8040B3B
:102D500000F0F2FE0099012081F84600FFE700999B
:102D6000012081F83E00009981F83F00009981F828
:102D70004000009981F84100FFE7FFE7009901203A
:102D800081F84200009981F84300009981F84400DD
:102D9000009981F84500FFE70099012081F83D0086
:102DA00000208DF80700FFE79DF8070002B080BD06
:102DB00083B0029002980068B0F1804F12D1FFE713
:102DC000FFE70020019043F64000C4F202000168D2
:102DD00041F001010160006800F0010001900198DC
:102DE000FFE71BE00298006840F20041C4F20001D6
:102DF000884212D1FFE7FFE70020009043F6400031
:102E0000C4F20200016841F002010160006800F0B4
:102E1000020000900098FFE7FFE7FFE703B070476C
:102E200081B0009001B0704780B58AB008900791DA
:102E3000079828B9FFE7089890F83E0005901CE035
:102E40000798042805D1FFE7089890F83F00049000
:102E500010E00798082805D1FFE7089890F840008F
:102E6000039004E0089890F841000390FFE703986E
:102E70000490FFE704980590FFE70598012804D027
:102E8000FFE701208DF827008AE0079828B9FFE7BF
:102E90000899022081F83E001EE00798042806D118
:102EA000FFE70899022081F83F00029012E007989E
:102EB000082806D1FFE70899022081F84000019018
:102EC00005E00899022081F841000190FFE7019890
:102ED0000290FFE70298FFE708980068079901222F
:102EE00000F0CCFE089800680021C4F2010188427D
:102EF00007D1FFE708980168486C40F40040486437
:102F0000FFE7089800680021C4F2010188422AD036
:102F1000FFE708980068B0F1804F24D0FFE70898D9
:102F2000006840F20041C4F2000188421BD0FFE774
:102F30000898006840F60001C4F20001884212D0EF
:102F4000FFE70898006840F60041C4F2000188429B
:102F500009D0FFE70898006844F20001C4F20101BB
:102F6000884212D1FFE708980068806800F00700E7
:102F700006900698062807D0FFE7089801680868B9
:102F800040F001000860FFE706E008980168086863
:102F900040F001000860FFE700208DF82700FFE700
:102FA0009DF827000AB080BD80B582B001900198DD
:102FB000006840F60041C4F20001884207D1FFE7F3
:102FC00040F28000C2F20000FDF736FBFFE702B0DE
:102FD00080BD000081B0009001B0704780B582B024
:102FE0000090009820B9FFE701208DF8070040E02D
:102FF0000098806908B1FFE700E0FFE7009890F8CB
:10300000410040B9FFE70099002081F84000009896
:1030100000F034F8FFE70099242081F8410000987F
:103020000168C86820F40050C860009801F0A4F955
:1030300000980168086920F49040086100980168D0
:10304000486920F02A00486100980168C86840F487
:103050000050C860009900204864009A202182F83E
:103060004110009A82F84210009948638DF80700D9
:10307000FFE79DF8070002B080BD000080B588B072
:103080000790002006900590049003900290079806
:10309000006841F20001C4F20101884234D1FFE727
:1030A000FFE70020019043F64400C4F202000168EB
:1030B00041F010010160006800F0100001900198DB
:1030C000FFE7FFE70020009043F63000C4F2020063
:1030D000016841F001010160006800F0010000900A
:1030E0000098FFE74FF4C060029002200390002098
:1030F000049003200590072006900020C4F20200EF
:1031000002A9FDF7D3FCFFE708B080BDFFE7FEE7AB
:1031100080B586B00022009205920492039202923A
:1031200040F29000C2F20000019042F20001C4F2AD
:10313000010101604FF480314160826002610276DA
:1031400080F82020C2620121C0F600718162C26055
:103150000121C16180F830204161FDF70FFC18B1F9
:10316000FFE7FDF7F9FAFFE7042002900120039042
:103170000020049040F29000C2F2000002A9FDF786
:10318000F1FA18B1FFE7FDF7E7FAFFE706B080BDF7
:1031900080B592B00020119010900F900E900D907D
:1031A000FFE700200C9043F63000C4F202000168F3
:1031B00041F080010160006800F080000C900C98E4
:1031C000FFE7FFE700200B9043F63000C4F2020057
:1031D000016841F001010160006800F001000B90FE
:1031E0000B98FFE7FFE700200A9043F63000C4F297
:1031F0000200016841F004010160006800F0040071
:103200000A900A98FFE7FFE70020099043F6300094
:10321000C4F20200016841F002010160006800F0A0
:10322000020009900998FFE70020C4F20200029012
:103230008021019101220392FDF702FE039A40F6DC
:103240000000C4F20200069030210891FDF7F8FD5D
:103250000298039940220D92002204920E920F913F
:103260000DA90791FDF722FCDDF804C00298039B2D
:10327000049A0799CDF834C00E930F92022205925A
:103280001092FDF713FCDDF80CC0049B059A06981C
:103290000799DDF820E0CDF834E0CDF838C00F9381
:1032A0001092FDF703FC12B080BD000080B582B023
:1032B00040F2D800C2F20000019045F20041C4F291
:1032C0000001016048F2A061C0F2010141600021EB
:1032D0008160C1604FF48042026141618161C161DE
:1032E0000162FDF7CBFD18B1FFE7FDF735FAFFE707
:1032F00002B080BD80B588B0002100910791069191
:10330000059104910391029140F22C10C2F2000049
:10331000019042F60002C4F20002026041607F2286
:103320008260FF22C260016141618161FEF74EFE51
:1033300018B1FFE7FDF710FAFFE700208DF80C0049
:103340008DF80D008DF80E000690079040F22C10BD
:10335000C2F2000003A90122FEF77AFF18B1FFE7CD
:10336000FDF7FAF9FFE701228DF808208DF8092012
:103370008DF80A2000208DF80B0040F22C10C2F2CC
:10338000000002A9FEF7D0FE18B1FFE7FDF7E4F94F
:10339000FFE708B080BD000080B588B00021009133
:1033A00007910691059104910391029140F24C100E
:1033B000C2F2000001900022C4F20102026040F259
:1033C00047324260816040F2E732C2600161416190
:1033D00080218161FFF7A4F818B1FFE7FDF7BCF980
:1033E000FFE74FF48050049040F24C10C2F200000E
:1033F00004A9FFF7B7F918B1FFE7FDF7ADF9FFE74B
:1034000000200290039040F24C10C2F2000002A98A
:10341000FFF706F818B1FFE7FDF79EF9FFE708B0E0
:1034200080BD000080B58AB000210091099108910B
:10343000079106910591049103910291019140F247
:103440009410C2F200004FF08042026040F23F52FE
:103450004260816040F2E142C2600161802181618D
:10346000FFF758FC18B1FFE7FDF776F9FFE70020FA
:103470000890099040F29410C2F2000008A9FEF7EB
:10348000CFFF18B1FFE7FDF767F9FFE76020019074
:10349000002202920392059240F29410C2F20000C0
:1034A00001A9FFF795FB18B1FFE7FDF755F9FFE715
:1034B00040F29410C2F2000001A90422FFF788FB39
:1034C00018B1FFE7FDF748F9FFE740F29410C2F2A8
:1034D000000001A90822FFF77BFB18B1FFE7FDF709
:1034E0003BF9FFE740F29410C2F2000001A90C2260
:1034F000FFF76EFB18B1FFE7FDF72EF9FFE740F28B
:103500009410C2F20000FFF701FB0AB080BD00007A
:1035100080B58AB000210091099108910791069128
:103520000591049103910291019140F2DC10C2F2E5
:10353000000040F20042C4F20002026040F23F523A
:103540004260816040F2E142C2600161802181619C
:10355000FFF7E0FB18B1FFE7FDF7FEF8FFE70020FB
:103560000890099040F2DC10C2F2000008A9FEF7B2
:1035700057FF18B1FFE7FDF7EFF8FFE76020019074
:10358000002202920392059240F2DC10C2F2000087
:1035900001A9FFF71DFB18B1FFE7FDF7DDF8FFE715
:1035A00040F2DC10C2F2000001A90422FFF710FB78
:1035B00018B1FFE7FDF7D0F8FFE740F2DC10C2F2E8
:1035C000000001A90822FFF703FB18B1FFE7FDF790
:1035D000C3F8FFE740F2DC10C2F2000001A90C22A0
:1035E000FFF7F6FA18B1FFE7FDF7B6F8FFE740F28C
:1035F000DC10C2F20000FFF789FA0AB080BD0000BB
:1036000080B588B000210191079106910591049140
:103610000391029140F22420C2F2000040F6000221
:10362000C4F2000202605322426081604FF6FF72D2
:10363000C260016180218161FEF772FF18B1FFE76E
:10364000FDF78AF8FFE74FF48050049040F2242001
:10365000C2F2000004A9FFF785F818B1FFE7FDF7F3
:103660007BF8FFE700200290039040F22420C2F292
:10367000000002A9FEF7D4FE18B1FFE7FDF76CF8D1
:10368000FFE708B080BD000080B586B0002105913D
:103690000491039102910191009140F26C20C2F2D9
:1036A000000040F60042C4F20002026042F2CF0283
:1036B000426081606321C1604FF4807101618021AB
:1036C0008161FEF72DFF18B1FFE7FDF745F8FFE731
:1036D0004FF48050029040F26C20C2F2000002A928
:1036E000FFF740F818B1FFE7FDF736F8FFE70020D5
:1036F0000090019040F26C20C2F200006946FEF793
:103700008FFE18B1FFE7FDF727F8FFE706B080BD91
:1037100080B582B040F2B420C2F20000019041F2C4
:103720000001C4F2010101604FF4E1314160002168
:103730008160C16001610C2242618161C161FFF75A
:103740004DFC18B1FFE7FDF707F8FFE702B080BDB9
:10375000FFE7FEE7FFE7FEE788B0079006910592D6
:10376000079800F0070004900498C0F107000528AE
:1037700003D3FFE70420019004E00498C0F10700A0
:103780000190FFE70198039004980430062803D8BD
:10379000FFE70020009003E0049803380090FFE763
:1037A0000098029006980399012202FA01F101396A
:1037B0000840029B984005999A40013A11400843FD
:1037C00008B0704780B582B08DF8070000208DF8F2
:1037D000060001208DF80500FFE79DF8050001288F
:1037E00045DBFFE79DF805009DF80710084000063F
:1037F00040B1FFE70020C4F2020080210122FDF762
:103800001FFB07E00020C4F2020080210022FDF728
:1038100017FBFFE740F60000C4F20200202100225F
:10382000FDF70EFB102000F0EDFE0020C4F20200B8
:103830004021FDF7EDFA40B1FFE79DF805109DF836
:10384000060008438DF80600FFE740F60000C4F2CA
:10385000020020210122FDF7F3FA102000F0D2FE31
:10386000FFE79DF8050040008DF80500B5E79DF8DD
:10387000060002B080BD00007047000082B08DF8E5
:10388000070000200090FFE79DF807000A2809D3F1
:10389000FFE70098013000909DF807000A388DF886
:1038A0000700F1E7009800F00F019DF8070040EADB
:1038B000011002B07047000080B584B00390002072
:1038C00002908DF8070003980068C0684006002841
:1038D0002FD4FFE703980168C86840F08000C860F3
:1038E000FDF7C6FA0290FFE703980068C168002060
:1038F00049060029009007D4FFE79DF8070001382A
:1039000018BF01200090FFE70098C00780B1FFE7D3
:10391000FDF7AEFA0299401AB0F57A7F07D9FFE7B2
:1039200003990420487701208DF80700FFE7DBE7C3
:10393000FFE79DF8070004B080BD000080B582B0AD
:10394000019000208DF8030001980168C86820F0FC
:103950008000C860019800688068800600280DD447
:10396000FFE70198FEF720FD38B1FFE70199042039
:10397000487701208DF80300FFE7FFE79DF803007B
:1039800002B080BD7047000080B584B040F20400F2
:10399000C2F200000190D0ED010A9FED130A8DEDF7
:1039A000020A01210091084600F0DCFF009901980D
:1039B0009DED020AD0ED020A0220039000F0D2FF32
:1039C00001989DED020A0399D0ED030A032000F04F
:1039D000C9FF01989DED020A0399D0ED040A042065
:1039E00000F0C0FF04B080BD0000000080B582B0D0
:1039F000009000980138B0F1807F03D3FFE70120E9
:103A0000019019E0009801384EF21401CEF2000145
:103A100008604FF0FF300F2100F06EFD4EF21801EC
:103A2000CEF20001002008604EF21002CEF2000239
:103A3000072111600190FFE7019802B080BD0000EE
:103A400080B5FDF7B5FB80BD80B594B008A83021E6
:103A5000FCF79EFC002007900690059004900390D0
:103A6000FFE70020029043F64000C4F20200016824
:103A700041F080510160006800F08050029002988F
:103A8000FFE7FFE70020019047F20000C4F20000CA
:103A90000168022262F38F310160006800F4404047
:103AA00001900198FFE7092008904FF480300990B9
:103AB00001200D9002200E904FF480000F90042002
:103AC0001090A821119112900720139008A8FDF7DB
:103AD0001DFF18B1FFE7FCF73FFEFFE70F20039043
:103AE00002210491002005904FF480520692079025
:103AF00003A8FDF73BFD18B1FFE7FCF72DFEFFE73C
:103B000014B080BD4EF68851CEF20001086840F432
:103B1000700008607047000080B540F24C10C2F29F
:103B20000000FEF7E5FE80BD80B540F26C20C2F2D9
:103B30000000FEF7DDFE80BD83B002900191029887
:103B40000068009002980021C4F2010188421DD053
:103B5000FFE70298B0F1804F18D0FFE7029840F2DB
:103B60000041C4F20001884210D0FFE7029840F6FD
:103B70000001C4F20001884208D0FFE7029840F635
:103B80000041C4F2000188420AD1FFE7009820F00A
:103B90007000009001984168009808430090FFE78A
:103BA00002980021C4F20101884235D0FFE7029853
:103BB000B0F1804F30D0FFE7029840F20041C4F2EC
:103BC0000001884228D0FFE7029840F60001C4F2C5
:103BD0000001884220D0FFE7029840F60041C4F27D
:103BE0000001884218D0FFE7029844F20001C4F2B5
:103BF0000101884210D0FFE7029844F20041C4F26C
:103C00000101884208D0FFE7029844F60001C4F29F
:103C1000010188420AD1FFE7009820F4407000902B
:103C20000198C168009808430090FFE7009820F0D1
:103C300080000199496908430090019880680299C1
:103C4000C862019800680299886202980021C4F253
:103C50000101884205D1FFE70198006902990863D4
:103C6000FFE70299086840F004000860029901200B
:103C7000486100980299086003B0704784B00390CF
:103C800002910192029800F01F01012088400090EB
:103C9000009A0399086A904308620198029901F01A
:103CA0001F0100FA01F20399086A1043086204B088
:103CB0007047000085B0049003910292019304982C
:103CC00080680090009820F47F400090039802994B
:103CD000019A41EA022101430098084300900098AC
:103CE0000499886005B0704783B0029001910298F2
:103CF00080680090009820F0700000900198009972
:103D0000084340F00700009000980299886003B0D3
:103D10007047000085B0049003910498006A0190F8
:103D20000499086A20F00100086204984068009035
:103D3000049880690290029820F070000290029826
:103D400020F0030002900398016802980843029053
:103D5000019820F0020001900398816801980843BF
:103D6000019004980021C4F2010188420ED1FFE7BE
:103D7000019820F0080001900398C1680198084359
:103D80000190019820F004000190FFE704980021C1
:103D9000C4F20101884213D1FFE7009820F480703B
:103DA0000090009820F400700090039841690098FA
:103DB0000843009003988169009808430090FFE74A
:103DC00000980499486002980499886103984068B3
:103DD0000499486301980499086205B0704700008F
:103DE00085B0049003910498006A01900499086AD0
:103DF00020F01000086204984068009004988069E0
:103E00000290029820F4E0400290029820F4407062
:103E1000029003980168029840EA012002900198FC
:103E200020F02000019003988168019840EA011079
:103E3000019004980021C4F2010188420FD1FFE7EC
:103E4000019820F0800001900398C168019840EA31
:103E500001100190019820F040000190FFE70498C4
:103E60000021C4F20101884215D1FFE7009820F437
:103E700080600090009820F40060009003984169F1
:103E8000009840EA8100009003988169009840EA18
:103E900081000090FFE70098049948600298049917
:103EA00088610398406804998863019804990862BE
:103EB00005B0704785B0049003910498006A0190A2
:103EC0000499086A20F480700862049840680090A1
:103ED0000498C0690290029820F070000290029845
:103EE00020F00300029003980168029808430290B2
:103EF000019820F40070019003988168019840EACD
:103F00000120019004980021C4F2010188420FD1E0
:103F1000FFE7019820F4006001900398C1680198C0
:103F200040EA01200190019820F480600190FFE7B1
:103F300004980021C4F20101884215D1FFE70098DE
:103F400020F480500090009820F4005000900398D6
:103F50004169009840EA0110009003988169009837
:103F600040EA01100090FFE7009804994860029829
:103F70000499C861039840680499C863019804993A
:103F8000086205B07047000085B004900391049862
:103F9000006A01900499086A20F48050086204982D
:103FA000406800900498C0690290029820F4E040B4
:103FB0000290029820F440700290039801680298E1
:103FC00040EA01200290019820F4005001900398EB
:103FD0008168019840EA0130019004980021C4F200
:103FE000010188420BD1FFE7009820F48040009047
:103FF00003984169009840EA81100090FFE700981B
:104000000499486002980499C8610398406804992B
:10401000086401980499086205B0704785B004905F
:10402000039102920498006A00900499086A20F0B3
:1040300001000862049880690190019820F0F00066
:1040400001900299019840EA01100190009820F037
:104050000A00009003990098084300900198049981
:10406000886100980499086205B0704785B0049093
:10407000039102920498006A00900499086A20F063
:1040800010000862049880690190019820F4704043
:1040900001900299019840EA01300190009820F0C7
:1040A000A00000900399009840EA01100090019848
:1040B0000499886100980499086205B0704700006F
:1040C00080B58AB08DED090A08909DED080AB8EE1A
:1040D000C00A9FEDA61A20EE010A8DED050A9DED9E
:1040E000090AB6EE001AB4EE410AF1EE10FA27DA28
:1040F000FFE79DED050A9DED091A31EE011A20EE4C
:10410000010A8DED070A40F20400C2F2000090EDB2
:10411000010A8DED040A9DED090A30EE000A9FEDBB
:10412000941A20EE010A00F023FF9DED041A9FED82
:10413000912A20EE020A30EE010A8DED060A14E003
:104140009DED050A9DED091A31EE012AB0EE001A27
:1041500031EE421A20EE010A8DED070A40F204000A
:10416000C2F2000040680690FFE79DED070ADDED12
:10417000060A0121084600F0F5FB9DED090AB6EE9E
:10418000001AB4EE410AF1EE10FA27DAFFE79DEDCE
:10419000050A9DED091A31EE011A20EE010A8DED96
:1041A000070A40F20400C2F2000090ED040A8DED0F
:1041B000030A9DED090A30EE000A9FED6D1A20EE0C
:1041C000010A00F0D5FE9DED031A9FED6A2A20EE4C
:1041D000020A30EE010A8DED060A14E09DED050A93
:1041E0009DED091A31EE012AB0EE001A31EE421AA5
:1041F00020EE010A8DED070A40F20400C2F2000031
:1042000000690690FFE79DED070ADDED060A042030
:10421000022100F0A7FB9DED090AB6EE001AB4EEEC
:10422000410AF1EE10FA2DDBFFE79DED050A9DED49
:10423000091A31EE012ABFEE001A32EE012A20EEF1
:10424000020A8DED070A40F20400C2F2000090ED70
:10425000020A8DED020A9DED090A30EE000A30EEE9
:10426000010A9FED431A20EE010A00F081FE9DED48
:10427000021A9FED402A20EE020A30EE010A8DED6F
:10428000060A14E09DED050A9DED091A31EE012A9A
:10429000B7EE001A31EE421A20EE010A8DED070A40
:1042A00040F20400C2F2000080680690FFE79DED36
:1042B000070ADDED060A0220012100F053FB9DED07
:1042C000090AB6EE001AB4EE410AF1EE10FA2DDB3F
:1042D000FFE79DED050A9DED091A31EE012ABFEEBB
:1042E000001A32EE012A20EE020A8DED070A40F292
:1042F0000400C2F2000090ED030A8DED010A9DED6D
:10430000090A30EE000A30EE010A9FED191A20EE7C
:10431000010A00F02DFE9DED011A9FED162A20EEF8
:10432000020A30EE010A8DED060A14E09DED050A41
:104330009DED091A31EE012AB7EE001A31EE421A4C
:1043400020EE010A8DED070A40F20400C2F20000DF
:10435000C0680690FFE79DED070ADDED060A032021
:10436000022100F0FFFA0AB080BD00BF8FC2F53C09
:10437000DB0F49400AD7A3BC80B586B005900598ED
:104380000068006920F44050059A1168D268104313
:104390000861059988680B694A69C969184310431F
:1043A0000843049005980068C06849F20C6188438E
:1043B0000499084305990968C86005980068406930
:1043C00020F44070059A116892691043486105987D
:1043D000006841F20001C4F20101884209D0FFE700
:1043E0000598006841F20041C4F20101884204D1FD
:1043F000FFE7FDF705FA039003E0FDF7EFF90390FF
:10440000FFE70598C069B0F5004F29D1FFE7039891
:104410001921A0FB0101059A1368029353685A0001
:10442000DB0FFBF73DFF0299864648F21F53C5F2AA
:10443000EB13AEFB0320420910014FF0640C02FBAA
:104440001CEC322202EBCC02A2FB0332F82303EA7B
:10445000521300EB4300C2F342121044886026E07E
:1044600003981921A0FB0101059A13680193536871
:104470009A009B0FFBF714FF0199844648F21F52E4
:10448000C5F2EB12ACFB02304309642003FB10CCF5
:10449000322000EB0C10A0FB0202F02000EA5210C8
:1044A00000EB0310C2F3431210448860FFE706B02C
:1044B00080BD0000FFE7FEE781B08DF803009DF9A5
:1044C000030000280ED4FFE79DF9031001F01F023E
:1044D000012090404A094EF20011CEF2000141F84D
:1044E0002200FFE701B070474EF60C50CEF20000FC
:1044F0000068C0F30220704782B08DF80700009179
:104500009DF9070000280AD4FFE7009800019DF9F3
:1045100007104EF20042CEF2000288540BE00098E1
:1045200000019DF8071001F00F014EF61452CEF273
:1045300000028854FFE702B07047000083B0029089
:10454000029800F0070000904EF60C51CEF20001E8
:104550000868019001984FF6FF0210400190019801
:10456000009A40EA02200022C0F2FA521043019061
:104570000198086003B0704784B08DED020ACDED5C
:10458000010A8DED001A9DED020A9DED011AB4EEAF
:10459000410AF1EE10FA03DAFFE7019803900FE009
:1045A0009DED020A9DED001AB4EE410AF1EE10FAFB
:1045B00003DDFFE70098039002E002980390FFE715
:1045C0009DED030A04B0704783B002900020019073
:1045D000FFE701980299884212D2FFE7002000907D
:1045E000FFE70098C0087C2805D8FFE7FFE70098A0
:1045F00001300090F5E7FFE7019801300190E8E70E
:1046000003B0704786B00590002001904EF2140070
:10461000CEF20000006820F07F400090059840F244
:104620000001C2F2000109684DF68362C4F21B3238
:10463000A1FB0221890C48430490049808B9FFE7C4
:1046400035E04EF21800CEF20000006820F07F4006
:104650000390FFE74EF21800CEF20000006820F051
:104660007F4002900298039988421FD0FFE702988A
:104670000399884207D2FFE703980299411A0198EB
:104680000844019009E000980299401A03990844EF
:104690000199084401300190FFE7029803900198C6
:1046A0000499884201D3FFE701E0FFE7D2E706B0B3
:1046B0007047000080B584B08DF80F008DED020AC0
:1046C000CDED010A9DF80F00013801460091032845
:1046D00048D80099DFE801F0021324359DED020A65
:1046E000BDEEC00A10EE100A00F0F8F99DED010AC7
:1046F000BDEEC00A10EE100A00F01AFA33E09DED8C
:10470000020ABDEEC00A10EE100A00F093F99DED0A
:10471000010ABDEEC00A10EE100A00F0B5F922E061
:104720009DED020ABDEEC00A10EE100A00F07EFAFE
:104730009DED010ABDEEC00A10EE100A00F0A0FACD
:1047400011E09DED020ABDEEC00A10EE100A00F065
:1047500019FA9DED010ABDEEC00A10EE100A00F034
:104760003BFA00E0FFE704B080BD000080B58CB0EC
:104770008DED0B0ACDED0A0A099045F2EC10C3F657
:10478000B85008904BF2D030C3F6D95007909DED49
:104790000B0A9DED0A1A21EE011A20EE000A30EEF6
:1047A000010A00F0ADFC8DED030A9DED030A9FEDBB
:1047B000641AB4EE410AF1EE10FA06DAFFE743F2AA
:1047C000BD70C3F286500390FFE79DED030A20EE13
:1047D000000A9FED5C1A30EE010A9FED5B1A8DED29
:1047E000001A30EE410A9FED591A80EE010AFFEEE1
:1047F000000ACDED010AB7EE001A8DED021AFFF79F
:10480000BBFE00F079FA9DED003ADDED010A9DED69
:10481000021A8DED040A9DED032A22EE020A9FED95
:104820004C4A30EE040A30EE430A9FED4A3A22EE3B
:10483000032A80EE020AFFF79FFE00F05DFA8DED7D
:10484000060A9DED0B0AB5EE400AF1EE10FA11DDF5
:10485000FFE79DED0A0A9DED0B1A80EE010A00F0BC
:10486000D7FAB0EEC00A9DED061A30EE010A8DEDC2
:10487000050A28E09DED0B0AB5EE400AF1EE10FAAC
:1048800017DAFFE79DED0A0A9DED0B1AB1EE411A0A
:1048900080EE010A00F0BCFAB0EE401A9DED060A67
:1048A00030EE410A9FED2D1A30EE010A8DED050A1A
:1048B00008E09DED060A9FED281A30EE010A8DED05
:1048C000050AFFE7FFE79DED050A9FED252A20EE8B
:1048D000020A9FED221A80EE010A40F2FC20C2F289
:1048E000000080ED000A9DED040A20EE020A80EE31
:1048F000010A80ED010A90ED000A90ED011A30EEF8
:10490000410A80ED010A0998022813D1FFE740F21D
:10491000FC20C2F2000090ED001A9FED110A30EE6B
:10492000411A80ED001A90ED011A30EE410A80ED37
:10493000010AFFE740F2FC20C2F200000CB080BD8B
:10494000BD378635DDB504BC5522393CE8BE9C3CFC
:10495000DDB5043CEC51383E0313C93FDB0F494041
:104960000000344380B586B08DF817008DED040A41
:10497000CDED030A02919DED040ADDED030A0298D4
:10498000FFF7F4FE01909DF81700019991ED000AE0
:10499000D1ED010AFFF78EFE06B080BD80B586B06E
:1049A000002001900590FCF711FCFFF74DF8FEF791
:1049B000EFFBFEF7ADFBFEF779FCFEF733FDFEF7EC
:1049C000A7FDFEF7A5FEFEF795FCFEF7E5FCFEF75A
:1049D00017FEFEF759FEFBF781FEFEF7D5FF4FF4F9
:1049E0007A70FFF7F1FD019803904DF20A70C3F65B
:1049F00023400290FFE79DED030A0120FFF760FBD3
:104A00009DED021A9DED030A30EE010A8DED030AB9
:104A10009DED030AB7EE001AB4EE410AF1EE10FA6A
:104A200003DBFFE700200390FFE71920FFF7CCFD31
:104A3000E1E7000083B002900298592803DCFFE709
:104A40005A20029007E00298AB2803DBFFE7AA2078
:104A50000290FFE7FFE702988DF807009DF8070036
:104A60007D21484341F2C261C0F26C11A0FB0110EC
:104A70001F300090009840F29411C2F200010968C2
:104A8000C86303B07047000083B0029002980E28FC
:104A900003DCFFE70F20029007E00298382803DBD1
:104AA000FFE737200290FFE7FFE702988DF8070045
:104AB0009DF807007D21484341F2C261C0F26C11AC
:104AC000A0FB01101F300090009840F29411C2F238
:104AD00000010968086403B07047000083B00290C9
:104AE0000298592803DCFFE75A20029007E0029859
:104AF000AB2803DBFFE7AA200290FFE7FFE702985D
:104B00008DF807009DF807007D21484341F2C261FE
:104B1000C0F26C11A0FB01101F300090009840F211
:104B20009411C2F200010968486303B070470000A5
:104B300083B0029002980E2803DCFFE70F2002905A
:104B400007E00298382803DBFFE737200290FFE7F1
:104B5000FFE702988DF807009DF807007D21484384
:104B600041F2C261C0F26C11A0FB01101F30009035
:104B7000009840F29411C2F200010968886303B002
:104B80007047000083B002900298092803DCFFE719
:104B90000A20029007E002985B2803DBFFE75A2017
:104BA0000290FFE7FFE702988DF807009DF80700E5
:104BB0007D21484341F2C261C0F26C11A0FB01109B
:104BC0001F300090009840F2DC11C2F20001096829
:104BD000C86303B07047000083B002900298862833
:104BE00003DCFFE78720029007E00298A62803DB9A
:104BF000FFE7A5200290FFE7FFE702988DF8070086
:104C00009DF807007D21484341F2C261C0F26C115A
:104C1000A0FB01101F300090009840F2DC11C2F29E
:104C200000010968086403B07047000083B0029077
:104C30000298092803DCFFE70A20029007E00298A7
:104C40005B2803DBFFE75A200290FFE7FFE70298AB
:104C50008DF807009DF807007D21484341F2C261AD
:104C6000C0F26C11A0FB01101F300090009840F2C0
:104C7000DC11C2F200010968486303B0704700000C
:104C800083B002900298862803DCFFE78720029019
:104C900007E00298A62803DBFFE7A5200290FFE7C4
:104CA000FFE702988DF807009DF807007D21484333
:104CB00041F2C261C0F26C11A0FB01101F300090E4
:104CC000009840F2DC11C2F200010968886303B069
:104CD00070474100080218BF04200A0E18BF40F0B8
:104CE00001004FF07F4232EA010108BF40F00200AC
:104CF000012808BF0520704710B510EE104A4FF08C
:104D00001A402DED028B00EB4400B0F1C85F4AD889
:104D10004FF0FC40B0EB440F22D2B0EEC00AF7EEE9
:104D2000000A30EEC00AF6EE000A20EE208A18EEE5
:104D3000100A00F0BFFA00EE100A14F0004F1DBF79
:104D40009FED281ADFED280AB1EE400A9FED271AE1
:104D500008BFF0EE410AF8EE001A20EE210A05E045
:104D600020EE008A9FED221ADFED220ADFED221AE3
:104D70009FED222A70EEC00A20EE080A08EE212AD2
:104D8000DFED1F1A48EE021A9FED1E2A08EE212AB7
:104D9000DFED1D1A48EE021ABDEC028B40EE610AEF
:104DA00030EE810A10BD4FF0CC40B0EB440F82BF13
:104DB0009FED160ABDEC028B10BD4FF07F40B0EBAB
:104DC000440F05D2BDEC028BBDE8104000F0B5B930
:104DD0000120FBF70CFBBDEC028BBDE8104000F09E
:104DE000AFB900000000494022AA7D3A000000004F
:104DF0000000C93F22AAFD3924FE1C3DC78AD83CC9
:104E00001E67383D1B93993DAFAA2A3EDB0FC93F71
:104E100010B54FF00E412DED028BB0EE408A18EE2A
:104E2000100A01EB4001B1F1145F5CD24FF0FE417A
:104E3000B1EB400F24BF9FED400AF0EE400A12D2C2
:104E400010F0004F19BFDFED3D0A9FED3D0ADFED89
:104E50003D0A9FED3D0AFFEE001A81EE881AB0EE82
:104E6000418A18EE100A4FF0FC41B1EB400F1BD203
:104E700010F0004FDFED351A9FED352A1DBFBEEE55
:104E8000001A70EEE10A30EE420AB6EE001A04BFD4
:104E900070EEA10A30EE020A38EE412AF7EE001A4F
:104EA00048EE011A82EE218ADFED2A1A9FED2A2AA6
:104EB00028EE081A01EE212ADFED281A41EE021A27
:104EC0009FED272A01EE212ADFED261A41EE021A74
:104ED00028EE011A01EE210A30EE080ABDEC028B21
:104EE00030EE200A10BD4FF0E441B1EB400F0CD979
:104EF00018EE100AFFF7EDFE042808BF00F028F9AD
:104F0000B0EE480ABDEC028B10BD4FF07F41B1EB13
:104F1000400F07D2B0EE480ABDEC028BBDE810404E
:104F200000F00BB910F0004F14BF9FED0F0A9FED7A
:104F30000F0ABDEC028B10BD000000000000C9BFCD
:104F400022AAFDB90000C93F22AAFD390060ED3E4A
:104F5000C30ACE372DAD65BD8FB8D53D0FB511BE97
:104F600061C84C3EA8AAAABEDB0FC9BFDB0FC93F70
:104F700000B510EE101A2DED028B81B0524A684632
:104F8000B2EB410F2ED94FF0E640B0EB410F94BF8A
:104F900000204FF0FF3000900098B0EE408A0028CB
:104FA0006ADB10F0010F4BD068EE080A9FED471A3C
:104FB0009FED470A00EE810A9FED461A10F0020F9E
:104FC00000EE801AB7EE000A00EE810A02BF01B0BF
:104FD000BDEC028B00BD00BF01B0B1EE400ABDECDC
:104FE000028B00BD3C4B21F00042934241D911F0AD
:104FF000004FDFED3A0A20EE201ADFED390A19BF23
:1050000031EE601A71EE200A31EE201A71EE600A5C
:10501000BDEEE01A11EE100A9FED321A00F0030007
:1050200000EEC10A9FED301A009000EEC10A9FED1C
:105030002F1A00EEC10A9FED2E1A00EEC10AABE74F
:1050400028EE080A9FED2B1ADFED2B0A10F0020F55
:1050500040EE010A9FED291A00EE201A61EE000AC7
:10506000B0EE480A08EE200AB6D101B0BDEC028BC2
:1050700000BD00F075F88FE718EE100A4000B0F19F
:105080007F4F0DD218EE100AFFF723FE042808BF49
:1050900000F05EF8B0EE480A01B0BDEC028B00BD36
:1050A00009D10120FBF7A3F901B0BDEC028B5DF83B
:1050B00004EB00F045B801B0B0EE480ABDEC028B3D
:1050C0005DF804EB00F039B8B61F927EB93AB2BA77
:1050D000CA9F2A3DDDFFFFBE490E494683F9223FA4
:1050E0000000004B0000C93F00A0FD390020A233A2
:1050F0001A61342C336D4CB9DA82083CA0AA2ABE5E
:1051000010B52DED028BB1EEC08A18EE100A20F01A
:105110000040C0F1FF40C00F0AD010EE100A20F08E
:105120000040C0F1FF40C00F04BF0120FBF75FF952
:10513000B0EE480ABDEC028B10BD30EE000A70479D
:10514000DFED020A80EEA00A7047000000000000B8
:105150009FED020A20EE000A7047000000000010D8
:105160002DE9F0014FF07F42B2EB410F9FBF4FF0AE
:10517000FF310160BDE8F00170474FF0004242EAA4
:105180000123C1F3C752783A551112F01F0C434C5A
:10519000CCF120067C44C1F3C752A2F178024FEA59
:1051A000621204EB820254F8254008BFD2E901568E
:1051B00012D0556804FA0CF425FA06F73C439768B8
:1051C00005FA0CF527FA06F8D26807FA0CFCF2404B
:1051D00045EA08054CEA0206A4FB034CA5FB035272
:1051E000A6FB03631D449D4234BF0126002613190C
:1051F000334416B1934202D903E0934201D2012213
:1052000000E00022624402F1200C9206DC0C42EA2B
:10521000443200EE102A5B03DFED210AF8EEC01ADB
:1052200000EE103A4FEA9C1C11F0004FB8EE400A15
:10523000C0F800C020EE201A00EE105ADFED190A67
:10524000B8EE400A20EE200A71EE810A70EE800A64
:1052500010EE902A02F500626FF30B0200EE902A26
:1052600070EEE11A31EEC11ADFED101A30EE411A7C
:105270009FED0D0A20EE800A01EE210A9FED0C1A27
:1052800000EE810A04BFBDE8F0017047CCF1805107
:105290000160BDE8F001B1EE400A70477401000002
:1052A000000000360000802C22AAFD29DB0FC92F48
:1052B0000000C92F10B500EE100A2DED028BB1EEE3
:1052C000C08A18EE100A20F00040C0F1FF40C00F65
:1052D0000AD010EE100A20F00040C0F1FF40C00FCD
:1052E00004BF0120FBF783F818EE100ABDEC028B17
:1052F00010BDF1EE100A4FF6FF71C0F2C03120EA86
:10530000010040F04070E1EE100A7047000000001C
:105310006E83F9A22915444ED15727FCC0DD34F520
:10532000999562DB4190433CAB6351FE0000000065
:105330000000000001020304060708090000000045
:105340000102030401420000000000000000000010
:10535000705300080000002020000000F801000841
:105360009053000820000020E80800001802000800
:105370000024F400000000008FC2F53D8FC2F53D0F
:105380008FC2F53D703D0A3E010000001000000094
:040000050800019559
:00000001FF
